{
  "_format": "hh-sol-artifact-1",
  "contractName": "DBet",
  "sourceName": "contracts/dBet.sol",
  "abi": [
    {
      "inputs": [
        {
          "internalType": "address",
          "name": "_router",
          "type": "address"
        },
        {
          "internalType": "bytes32",
          "name": "_donId",
          "type": "bytes32"
        },
        {
          "internalType": "uint64",
          "name": "_subscriptionId",
          "type": "uint64"
        },
        {
          "internalType": "uint256",
          "name": "_updateInterval",
          "type": "uint256"
        }
      ],
      "stateMutability": "nonpayable",
      "type": "constructor"
    },
    {
      "inputs": [],
      "name": "EmptyArgs",
      "type": "error"
    },
    {
      "inputs": [],
      "name": "EmptySource",
      "type": "error"
    },
    {
      "inputs": [],
      "name": "NoInlineSecrets",
      "type": "error"
    },
    {
      "inputs": [],
      "name": "OnlyRouterCanFulfill",
      "type": "error"
    },
    {
      "anonymous": false,
      "inputs": [
        {
          "indexed": true,
          "internalType": "uint256",
          "name": "matchId",
          "type": "uint256"
        },
        {
          "indexed": true,
          "internalType": "address",
          "name": "user",
          "type": "address"
        },
        {
          "indexed": false,
          "internalType": "uint8",
          "name": "team",
          "type": "uint8"
        },
        {
          "indexed": false,
          "internalType": "uint256",
          "name": "amount",
          "type": "uint256"
        }
      ],
      "name": "BetPlaced",
      "type": "event"
    },
    {
      "anonymous": false,
      "inputs": [
        {
          "indexed": true,
          "internalType": "uint256",
          "name": "matchId",
          "type": "uint256"
        },
        {
          "indexed": false,
          "internalType": "uint256",
          "name": "amount",
          "type": "uint256"
        }
      ],
      "name": "FundsSwept",
      "type": "event"
    },
    {
      "anonymous": false,
      "inputs": [
        {
          "indexed": true,
          "internalType": "uint256",
          "name": "matchId",
          "type": "uint256"
        },
        {
          "indexed": false,
          "internalType": "uint8",
          "name": "teamA",
          "type": "uint8"
        },
        {
          "indexed": false,
          "internalType": "uint8",
          "name": "teamB",
          "type": "uint8"
        },
        {
          "indexed": false,
          "internalType": "uint256",
          "name": "startTime",
          "type": "uint256"
        }
      ],
      "name": "MatchCreated",
      "type": "event"
    },
    {
      "anonymous": false,
      "inputs": [
        {
          "indexed": true,
          "internalType": "uint256",
          "name": "matchId",
          "type": "uint256"
        },
        {
          "indexed": false,
          "internalType": "uint8",
          "name": "winningTeam",
          "type": "uint8"
        }
      ],
      "name": "MatchResolved",
      "type": "event"
    },
    {
      "anonymous": false,
      "inputs": [
        {
          "indexed": true,
          "internalType": "bytes32",
          "name": "requestId",
          "type": "bytes32"
        },
        {
          "indexed": true,
          "internalType": "uint256",
          "name": "matchId",
          "type": "uint256"
        }
      ],
      "name": "MatchResultRequested",
      "type": "event"
    },
    {
      "anonymous": false,
      "inputs": [
        {
          "indexed": true,
          "internalType": "bytes32",
          "name": "requestId",
          "type": "bytes32"
        }
      ],
      "name": "MatchesCreationRequested",
      "type": "event"
    },
    {
      "anonymous": false,
      "inputs": [
        {
          "indexed": true,
          "internalType": "address",
          "name": "from",
          "type": "address"
        },
        {
          "indexed": true,
          "internalType": "address",
          "name": "to",
          "type": "address"
        }
      ],
      "name": "OwnershipTransferRequested",
      "type": "event"
    },
    {
      "anonymous": false,
      "inputs": [
        {
          "indexed": true,
          "internalType": "address",
          "name": "from",
          "type": "address"
        },
        {
          "indexed": true,
          "internalType": "address",
          "name": "to",
          "type": "address"
        }
      ],
      "name": "OwnershipTransferred",
      "type": "event"
    },
    {
      "anonymous": false,
      "inputs": [
        {
          "indexed": true,
          "internalType": "bytes32",
          "name": "id",
          "type": "bytes32"
        }
      ],
      "name": "RequestFulfilled",
      "type": "event"
    },
    {
      "anonymous": false,
      "inputs": [
        {
          "indexed": true,
          "internalType": "bytes32",
          "name": "id",
          "type": "bytes32"
        }
      ],
      "name": "RequestSent",
      "type": "event"
    },
    {
      "anonymous": false,
      "inputs": [
        {
          "indexed": true,
          "internalType": "bytes32",
          "name": "requestId",
          "type": "bytes32"
        },
        {
          "indexed": false,
          "internalType": "bytes",
          "name": "err",
          "type": "bytes"
        }
      ],
      "name": "ResponseError",
      "type": "event"
    },
    {
      "anonymous": false,
      "inputs": [
        {
          "indexed": true,
          "internalType": "uint256",
          "name": "matchId",
          "type": "uint256"
        },
        {
          "indexed": true,
          "internalType": "address",
          "name": "user",
          "type": "address"
        },
        {
          "indexed": false,
          "internalType": "uint256",
          "name": "rewardAmount",
          "type": "uint256"
        }
      ],
      "name": "RewardClaimed",
      "type": "event"
    },
    {
      "inputs": [],
      "name": "CLAIM_DEADLINE",
      "outputs": [
        {
          "internalType": "uint256",
          "name": "",
          "type": "uint256"
        }
      ],
      "stateMutability": "view",
      "type": "function"
    },
    {
      "inputs": [],
      "name": "MINIMUM_BET",
      "outputs": [
        {
          "internalType": "uint256",
          "name": "",
          "type": "uint256"
        }
      ],
      "stateMutability": "view",
      "type": "function"
    },
    {
      "inputs": [],
      "name": "acceptOwnership",
      "outputs": [],
      "stateMutability": "nonpayable",
      "type": "function"
    },
    {
      "inputs": [
        {
          "internalType": "uint256",
          "name": "_matchId",
          "type": "uint256"
        },
        {
          "internalType": "uint8",
          "name": "_team",
          "type": "uint8"
        }
      ],
      "name": "bet",
      "outputs": [],
      "stateMutability": "payable",
      "type": "function"
    },
    {
      "inputs": [
        {
          "internalType": "bytes",
          "name": "",
          "type": "bytes"
        }
      ],
      "name": "checkUpkeep",
      "outputs": [
        {
          "internalType": "bool",
          "name": "upkeepNeeded",
          "type": "bool"
        },
        {
          "internalType": "bytes",
          "name": "",
          "type": "bytes"
        }
      ],
      "stateMutability": "view",
      "type": "function"
    },
    {
      "inputs": [
        {
          "internalType": "uint256",
          "name": "_matchId",
          "type": "uint256"
        }
      ],
      "name": "claimReward",
      "outputs": [],
      "stateMutability": "nonpayable",
      "type": "function"
    },
    {
      "inputs": [
        {
          "internalType": "uint8",
          "name": "_teamA",
          "type": "uint8"
        },
        {
          "internalType": "uint8",
          "name": "_teamB",
          "type": "uint8"
        },
        {
          "internalType": "uint256",
          "name": "_startTime",
          "type": "uint256"
        }
      ],
      "name": "createMatch",
      "outputs": [],
      "stateMutability": "nonpayable",
      "type": "function"
    },
    {
      "inputs": [],
      "name": "donId",
      "outputs": [
        {
          "internalType": "bytes32",
          "name": "",
          "type": "bytes32"
        }
      ],
      "stateMutability": "view",
      "type": "function"
    },
    {
      "inputs": [],
      "name": "fetchMatchesSourceCode",
      "outputs": [
        {
          "internalType": "string",
          "name": "",
          "type": "string"
        }
      ],
      "stateMutability": "view",
      "type": "function"
    },
    {
      "inputs": [],
      "name": "gasLimit",
      "outputs": [
        {
          "internalType": "uint32",
          "name": "",
          "type": "uint32"
        }
      ],
      "stateMutability": "view",
      "type": "function"
    },
    {
      "inputs": [
        {
          "internalType": "bytes32",
          "name": "requestId",
          "type": "bytes32"
        },
        {
          "internalType": "bytes",
          "name": "response",
          "type": "bytes"
        },
        {
          "internalType": "bytes",
          "name": "err",
          "type": "bytes"
        }
      ],
      "name": "handleOracleFulfillment",
      "outputs": [],
      "stateMutability": "nonpayable",
      "type": "function"
    },
    {
      "inputs": [],
      "name": "lastTimeStamp",
      "outputs": [
        {
          "internalType": "uint256",
          "name": "",
          "type": "uint256"
        }
      ],
      "stateMutability": "view",
      "type": "function"
    },
    {
      "inputs": [],
      "name": "matchCounter",
      "outputs": [
        {
          "internalType": "uint256",
          "name": "",
          "type": "uint256"
        }
      ],
      "stateMutability": "view",
      "type": "function"
    },
    {
      "inputs": [
        {
          "internalType": "uint256",
          "name": "",
          "type": "uint256"
        }
      ],
      "name": "matches",
      "outputs": [
        {
          "internalType": "uint8",
          "name": "teamA",
          "type": "uint8"
        },
        {
          "internalType": "uint8",
          "name": "teamB",
          "type": "uint8"
        },
        {
          "internalType": "bool",
          "name": "isResolved",
          "type": "bool"
        },
        {
          "internalType": "uint8",
          "name": "winningTeam",
          "type": "uint8"
        },
        {
          "internalType": "bool",
          "name": "betsOpen",
          "type": "bool"
        },
        {
          "internalType": "uint256",
          "name": "startTime",
          "type": "uint256"
        },
        {
          "internalType": "uint256",
          "name": "endTime",
          "type": "uint256"
        },
        {
          "internalType": "bool",
          "name": "swept",
          "type": "bool"
        },
        {
          "internalType": "uint256",
          "name": "totalClaimed",
          "type": "uint256"
        }
      ],
      "stateMutability": "view",
      "type": "function"
    },
    {
      "inputs": [],
      "name": "owner",
      "outputs": [
        {
          "internalType": "address",
          "name": "",
          "type": "address"
        }
      ],
      "stateMutability": "view",
      "type": "function"
    },
    {
      "inputs": [
        {
          "internalType": "bytes",
          "name": "",
          "type": "bytes"
        }
      ],
      "name": "performUpkeep",
      "outputs": [],
      "stateMutability": "nonpayable",
      "type": "function"
    },
    {
      "inputs": [
        {
          "internalType": "uint256",
          "name": "_matchId",
          "type": "uint256"
        },
        {
          "internalType": "string",
          "name": "_sourceCode",
          "type": "string"
        },
        {
          "internalType": "string",
          "name": "_apiMatchId",
          "type": "string"
        }
      ],
      "name": "requestMatchResult",
      "outputs": [
        {
          "internalType": "bytes32",
          "name": "",
          "type": "bytes32"
        }
      ],
      "stateMutability": "nonpayable",
      "type": "function"
    },
    {
      "inputs": [
        {
          "internalType": "bytes32",
          "name": "",
          "type": "bytes32"
        }
      ],
      "name": "requestToMatchId",
      "outputs": [
        {
          "internalType": "uint256",
          "name": "",
          "type": "uint256"
        }
      ],
      "stateMutability": "view",
      "type": "function"
    },
    {
      "inputs": [
        {
          "internalType": "bytes32",
          "name": "",
          "type": "bytes32"
        }
      ],
      "name": "requestTypes",
      "outputs": [
        {
          "internalType": "enum DBet.RequestType",
          "name": "",
          "type": "uint8"
        }
      ],
      "stateMutability": "view",
      "type": "function"
    },
    {
      "inputs": [
        {
          "internalType": "string",
          "name": "_sourceCode",
          "type": "string"
        }
      ],
      "name": "setFetchMatchesSourceCode",
      "outputs": [],
      "stateMutability": "nonpayable",
      "type": "function"
    },
    {
      "inputs": [
        {
          "internalType": "uint256",
          "name": "_interval",
          "type": "uint256"
        }
      ],
      "name": "setUpdateInterval",
      "outputs": [],
      "stateMutability": "nonpayable",
      "type": "function"
    },
    {
      "inputs": [],
      "name": "subscriptionId",
      "outputs": [
        {
          "internalType": "uint64",
          "name": "",
          "type": "uint64"
        }
      ],
      "stateMutability": "view",
      "type": "function"
    },
    {
      "inputs": [
        {
          "internalType": "uint256",
          "name": "_matchId",
          "type": "uint256"
        }
      ],
      "name": "sweepUnclaimedFunds",
      "outputs": [],
      "stateMutability": "nonpayable",
      "type": "function"
    },
    {
      "inputs": [
        {
          "internalType": "address",
          "name": "to",
          "type": "address"
        }
      ],
      "name": "transferOwnership",
      "outputs": [],
      "stateMutability": "nonpayable",
      "type": "function"
    },
    {
      "inputs": [],
      "name": "updateInterval",
      "outputs": [
        {
          "internalType": "uint256",
          "name": "",
          "type": "uint256"
        }
      ],
      "stateMutability": "view",
      "type": "function"
    },
    {
      "inputs": [
        {
          "internalType": "uint256",
          "name": "",
          "type": "uint256"
        },
        {
          "internalType": "address",
          "name": "",
          "type": "address"
        }
      ],
      "name": "userBets",
      "outputs": [
        {
          "internalType": "uint256",
          "name": "amount",
          "type": "uint256"
        },
        {
          "internalType": "uint8",
          "name": "selectedTeam",
          "type": "uint8"
        },
        {
          "internalType": "bool",
          "name": "hasClaimed",
          "type": "bool"
        }
      ],
      "stateMutability": "view",
      "type": "function"
    }
  ],
  "bytecode": "0x60a06040526003805463ffffffff60401b19166a0493e0000000000000000017905562093a806004553480156200003557600080fd5b5060405162002a5a38038062002a5a8339810160408190526200005891620001d1565b6001600160a01b0384166080523380600081620000bc5760405162461bcd60e51b815260206004820152601860248201527f43616e6e6f7420736574206f776e657220746f207a65726f000000000000000060448201526064015b60405180910390fd5b600080546001600160a01b0319166001600160a01b0384811691909117909155811615620000ef57620000ef8162000126565b505050600292909255600380546001600160401b0319166001600160401b0392909216919091179055600455504260055562000235565b336001600160a01b03821603620001805760405162461bcd60e51b815260206004820152601760248201527f43616e6e6f74207472616e7366657220746f2073656c660000000000000000006044820152606401620000b3565b600180546001600160a01b0319166001600160a01b0383811691821790925560008054604051929316917fed8889f560326eb138920d842192f0eb3dd22b4f139c87a2c57538e05bae12789190a350565b60008060008060808587031215620001e857600080fd5b84516001600160a01b03811681146200020057600080fd5b6020860151604087015191955093506001600160401b03811681146200022557600080fd5b6060959095015193969295505050565b60805161280262000258600039600081816105ff015261195b01526128026000f3fe6080604052600436106101815760003560e01c80638da5cb5b116100d1578063c437a0cd1161008a578063f2fde38b11610064578063f2fde38b14610565578063f68016b714610585578063f7619409146105be578063fd2c80ae146105de57600080fd5b8063c437a0cd146104f5578063c7a4c0bb14610508578063d5941c991461052857600080fd5b80638da5cb5b1461043a5780638dbe7b9d14610462578063935aae40146104785780639bfc119614610493578063ad13ef8d146104b3578063ae169a50146104d557600080fd5b80634585e33b1161013e5780637124c683116101185780637124c6831461036e57806379ba50971461038e5780637d06a8e1146103a357806387cad4cd1461040d57600080fd5b80634585e33b146102565780634768d4ef146102765780636e04ff0d1461034057600080fd5b806301fd19511461018657806309c1ba2e146101af5780630ca76175146101e7578063135f3ec3146102095780633f3b3b271461022957806342f815801461023f575b600080fd5b34801561019257600080fd5b5061019c60075481565b6040519081526020015b60405180910390f35b3480156101bb57600080fd5b506003546101cf906001600160401b031681565b6040516001600160401b0390911681526020016101a6565b3480156101f357600080fd5b5061020761020236600461218c565b6105f4565b005b34801561021557600080fd5b5061019c61022436600461218c565b610678565b34801561023557600080fd5b5061019c60055481565b34801561024b57600080fd5b5061019c62093a8081565b34801561026257600080fd5b506102076102713660046121f8565b61084d565b34801561028257600080fd5b506102ee610291366004612269565b6009602052600090815260409020805460018201546002830154600384015460049094015460ff80851695610100860482169562010000810483169563010000008204841695640100000000909204841694909391929091169089565b6040805160ff9a8b168152988a1660208a015296151596880196909652969093166060860152901515608085015260a084015260c083015291151560e0820152610100810191909152610120016101a6565b34801561034c57600080fd5b5061036061035b3660046121f8565b6109d3565b6040516101a69291906122c8565b34801561037a57600080fd5b50610207610389366004612269565b610a03565b34801561039a57600080fd5b50610207610a10565b3480156103af57600080fd5b506103ee6103be366004612307565b600a6020908152600092835260408084209091529082529020805460019091015460ff8082169161010090041683565b6040805193845260ff90921660208401521515908201526060016101a6565b34801561041957600080fd5b5061019c610428366004612269565b600b6020526000908152604090205481565b34801561044657600080fd5b506000546040516001600160a01b0390911681526020016101a6565b34801561046e57600080fd5b5061019c60025481565b34801561048457600080fd5b5061019c662386f26fc1000081565b34801561049f57600080fd5b506102076104ae366004612269565b610aba565b3480156104bf57600080fd5b506104c8610d78565b6040516101a69190612333565b3480156104e157600080fd5b506102076104f0366004612269565b610e06565b610207610503366004612357565b611120565b34801561051457600080fd5b5061020761052336600461237a565b6113a7565b34801561053457600080fd5b50610558610543366004612269565b60086020526000908152604090205460ff1681565b6040516101a691906123c4565b34801561057157600080fd5b506102076105803660046123ec565b6113bf565b34801561059157600080fd5b506003546105a990600160401b900463ffffffff1681565b60405163ffffffff90911681526020016101a6565b3480156105ca57600080fd5b506102076105d9366004612407565b6113d3565b3480156105ea57600080fd5b5061019c60045481565b336001600160a01b037f0000000000000000000000000000000000000000000000000000000000000000161461063d5760405163c6829f8360e01b815260040160405180910390fd5b6106488383836113eb565b60405183907f85e1543bf2f84fe80c6badbce3648c8539ad1df4d2b3d822938ca0538be727e690600090a2505050565b60006106826115f2565b60008481526009602052604090205462010000900460ff16156106c05760405162461bcd60e51b81526004016106b790612443565b60405180910390fd5b60008481526009602052604090206001015442116107205760405162461bcd60e51b815260206004820152601960248201527f4d6174636820686173206e6f742073746172746564207965740000000000000060448201526064016106b7565b6107616040805160e0810190915280600081526020016000815260200160008152602001606081526020016060815260200160608152602001606081525090565b61076b8185611647565b604080516001808252818301909252600091816020015b606081526020019060019003908161078257905050905083816000815181106107ad576107ad612473565b60209081029190910101526107c28282611654565b60006107f46107d08461167e565b6003546002546001600160401b03821691600160401b900463ffffffff1690611956565b6000818152600b602090815260408083208b90556008909152808220805460ff1916905551919250889183917fdb4c2b4c97ff3c6b4105c5c47f2349ac2f2c64fdfd1f52bbb8989fa0cc9a19a091a39695505050505050565b60045460055461085d904261249f565b116108995760405162461bcd60e51b815260206004820152600c60248201526b139bdd081d1a5b59481e595d60a21b60448201526064016106b7565b426005556108de6040805160e0810190915280600081526020016000815260200160008152602001606081526020016060815260200160608152602001606081525090565b61097b600680546108ee906124b2565b80601f016020809104026020016040519081016040528092919081815260200182805461091a906124b2565b80156109675780601f1061093c57610100808354040283529160200191610967565b820191906000526020600020905b81548152906001019060200180831161094a57829003601f168201915b50505050508261164790919063ffffffff16565b60006109896107d08361167e565b600081815260086020526040808220805460ff191660011790555191925082917fee452c36d3fe9b7b3ac243e22f9993cfa29d17572cc1ef379d2fc0808b792aa59190a250505050565b60006060600454600554426109e8919061249f565b60408051602081019091526000815291109590945092505050565b610a0b6115f2565b600455565b6001546001600160a01b03163314610a635760405162461bcd60e51b815260206004820152601660248201527526bab9ba10313290383937b837b9b2b21037bbb732b960511b60448201526064016106b7565b60008054336001600160a01b0319808316821784556001805490911690556040516001600160a01b0390921692909183917f8be0079c531659141344cd1fd0a4f28419497f9722a3daafe3b4186f6b6457e091a350565b610ac26115f2565b6000818152600960205260409020805462010000900460ff16610b235760405162461bcd60e51b815260206004820152601960248201527813585d18da081a5cc81b9bdd081c995cdbdb1d9959081e595d603a1b60448201526064016106b7565b600381015460ff1615610b835760405162461bcd60e51b815260206004820152602260248201527f46756e647320616c726561647920737765707420666f722074686973206d61746044820152610c6d60f31b60648201526084016106b7565b62093a808160020154610b9691906124ec565b4211610be45760405162461bcd60e51b815260206004820152601e60248201527f436c61696d20646561646c696e65206e6f74207265616368656420796574000060448201526064016106b7565b6003600090815260058201602052604080822054600283528183205460018452918320549091610c13916124ec565b610c1d91906124ec565b90506000826004015482610c31919061249f565b905060008111610c7c5760405162461bcd60e51b815260206004820152601660248201527504e6f2066756e6473206c65667420746f2073776565760541b60448201526064016106b7565b60038301805460ff191660011790556000610c9f6000546001600160a01b031690565b6001600160a01b03168260405160006040518083038185875af1925050503d8060008114610ce9576040519150601f19603f3d011682016040523d82523d6000602084013e610cee565b606091505b5050905080610d375760405162461bcd60e51b815260206004820152601560248201527414ddd9595c081d1c985b9cd9995c8819985a5b1959605a1b60448201526064016106b7565b847f9eb99a33c0eecff41c7a9ad9fccd1a673c811ff8d74a8a254ae762c4f57c69f583604051610d6991815260200190565b60405180910390a25050505050565b60068054610d85906124b2565b80601f0160208091040260200160405190810160405280929190818152602001828054610db1906124b2565b8015610dfe5780601f10610dd357610100808354040283529160200191610dfe565b820191906000526020600020905b815481529060010190602001808311610de157829003601f168201915b505050505081565b6000818152600960209081526040808320600a8352818420338552909252909120815462010000900460ff16610e7a5760405162461bcd60e51b815260206004820152601960248201527813585d18da081a5cc81b9bdd081c995cdbdb1d9959081e595d603a1b60448201526064016106b7565b8054610eb85760405162461bcd60e51b815260206004820152600d60248201526c139bc818995d081c1b1858d959609a1b60448201526064016106b7565b6001810154610100900460ff1615610f0b5760405162461bcd60e51b815260206004820152601660248201527514995dd85c9908185b1c9958591e4818db185a5b595960521b60448201526064016106b7565b8154600182015460ff90811663010000009092041614610f5f5760405162461bcd60e51b815260206004820152600f60248201526e2cb7ba903234b2103737ba103bb4b760891b60448201526064016106b7565b62093a808260020154610f7291906124ec565b421115610fb65760405162461bcd60e51b815260206004820152601260248201527110db185a5b481c195c9a5bd908195b99195960721b60448201526064016106b7565b6001818101805461ff001916610100179055600360009081526005840160205260408082205460028352818320549383529082205491929091610ff991906124ec565b61100391906124ec565b83546301000000900460ff166000908152600585016020526040812054845492935090916110329084906124ff565b61103c919061252c565b90508084600401600082825461105291906124ec565b9091555050604051600090339083908381818185875af1925050503d8060008114611099576040519150601f19603f3d011682016040523d82523d6000602084013e61109e565b606091505b50509050806110e15760405162461bcd60e51b815260206004820152600f60248201526e151c985b9cd9995c8819985a5b1959608a1b60448201526064016106b7565b604051828152339087907f24b5efa61dd1cfc659205a97fb8ed868f3cb8c81922bab2b96423e5de1de2cb79060200160405180910390a3505050505050565b600082815260096020526040902060010154421061118c5760405162461bcd60e51b8152602060048201526024808201527f4d617463682068617320737461727465642c2062657474696e6720697320636c6044820152631bdcd95960e21b60648201526084016106b7565b662386f26fc100003410156111d85760405162461bcd60e51b815260206004820152601260248201527142657420616d6f756e7420746f6f206c6f7760701b60448201526064016106b7565b60008281526009602052604090205462010000900460ff161561120d5760405162461bcd60e51b81526004016106b790612443565b60018160ff1610158015611225575060038160ff1611155b61126a5760405162461bcd60e51b815260206004820152601660248201527524b73b30b634b2103a32b0b69039b2b632b1ba34b7b760511b60448201526064016106b7565b6000828152600a60209081526040808320338452909152902054156112c65760405162461bcd60e51b815260206004820152601260248201527110995d08185b1c9958591e481c1b1858d95960721b60448201526064016106b7565b600082815260096020908152604080832060ff85168452600501909152812080543492906112f59084906124ec565b9091555050604080516060810182523480825260ff80851660208085019182526000858701818152898252600a8352878220338084529352908790209551865591516001959095018054925115156101000261ffff1990931695909316949094171790559151909184917f4f1eed5e863a822b0f9eb960dfdab2cc5a99beec4b191f2a7a9c7e28e5a155249161139b9186919060ff929092168252602082015260400190565b60405180910390a35050565b6113af6115f2565b60066113bb828261258e565b5050565b6113c76115f2565b6113d081611a28565b50565b6113db6115f2565b6113e6838383611ad1565b505050565b80511561142f57827f2c0e24a86e610ad926d2f21e2d79c5df8807be7e0cd8585ea7270aa1a1c4b098826040516114229190612333565b60405180910390a2505050565b60008381526008602052604081205460ff1690816001811115611454576114546123ae565b03611597576000848152600b602090815260408083205480845260099092529091205462010000900460ff161561149d5760405162461bcd60e51b81526004016106b790612443565b6000848060200190518101906114b3919061264d565b905080600160ff8216108015906114ce575060038160ff1611155b61151a5760405162461bcd60e51b815260206004820152601860248201527f496e76616c69642077696e6e65722073656c656374696f6e000000000000000060448201526064016106b7565b60008381526009602052604090819020805460ff841663010000000263ffff0000199091161762010000178155426002909101555183907fde1c752173fee6bd3976fb1f165361c647fffc7a33987556b7f54b6a2de08ece9061158790849060ff91909116815260200190565b60405180910390a25050506115ec565b60018160018111156115ab576115ab6123ae565b036115ec576000838060200190518101906115c6919061264d565b905080600881901c6001600160401b03601083901c166115e7828483611ad1565b505050505b50505050565b6000546001600160a01b031633146116455760405162461bcd60e51b815260206004820152601660248201527527b7363c9031b0b63630b1363290313c9037bbb732b960511b60448201526064016106b7565b565b6113bb8260008084611bcd565b80516000036116765760405163fe936cb760e01b815260040160405180910390fd5b60a090910152565b6060600061168d610100611c4b565b90506116c66040518060400160405280600c81526020016b31b7b232a637b1b0ba34b7b760a11b81525082611c6c90919063ffffffff16565b82516116e49060028111156116dd576116dd6123ae565b8290611c85565b6040805180820190915260088152676c616e677561676560c01b602082015261170e908290611c6c565b60408301516117259080156116dd576116dd6123ae565b604080518082019091526006815265736f7572636560d01b602082015261174d908290611c6c565b606083015161175d908290611c6c565b60a083015151156117f1576040805180820190915260048152636172677360e01b602082015261178e908290611c6c565b61179781611cbe565b60005b8360a00151518110156117e7576117d78460a0015182815181106117c0576117c0612473565b602002602001015183611c6c90919063ffffffff16565b6117e081612666565b905061179a565b506117f181611ce2565b608083015151156118b557600083602001516002811115611814576118146123ae565b036118325760405163a80d31f760e01b815260040160405180910390fd5b60408051808201909152600f81526e39b2b1b932ba39a637b1b0ba34b7b760891b6020820152611863908290611c6c565b61187c836020015160028111156116dd576116dd6123ae565b6040805180820190915260078152667365637265747360c81b60208201526118a5908290611c6c565b60808301516118b5908290611d00565b60c0830151511561194e5760408051808201909152600981526862797465734172677360b81b60208201526118eb908290611c6c565b6118f481611cbe565b60005b8360c0015151811015611944576119348460c00151828151811061191d5761191d612473565b602002602001015183611d0090919063ffffffff16565b61193d81612666565b90506118f7565b5061194e81611ce2565b515192915050565b6000807f00000000000000000000000000000000000000000000000000000000000000006001600160a01b031663461d27628688600188886040518663ffffffff1660e01b81526004016119ae95949392919061267f565b6020604051808303816000875af11580156119cd573d6000803e3d6000fd5b505050506040513d601f19601f820116820180604052508101906119f1919061264d565b60405190915081907f1131472297a800fee664d1d89cfa8f7676ff07189ecc53f80bbb5f4969099db890600090a295945050505050565b336001600160a01b03821603611a805760405162461bcd60e51b815260206004820152601760248201527f43616e6e6f74207472616e7366657220746f2073656c6600000000000000000060448201526064016106b7565b600180546001600160a01b0319166001600160a01b0383811691821790925560008054604051929316917fed8889f560326eb138920d842192f0eb3dd22b4f139c87a2c57538e05bae12789190a350565b428111611b2f5760405162461bcd60e51b815260206004820152602660248201527f4d617463682073746172742074696d65206d75737420626520696e207468652060448201526566757475726560d01b60648201526084016106b7565b60078054906000611b3f83612666565b909155505060078054600090815260096020908152604091829020805460ff88811661ffff1990921682176101009189169182021763ffff00001916835560018301879055945484519182529281019490945291830184905290917ff2f0a99fe58c976e6c59ad463c172c929a225a715938c516357cac4f5507fcec9060600160405180910390a250505050565b8051600003611bef576040516322ce3edd60e01b815260040160405180910390fd5b83836002811115611c0257611c026123ae565b90816002811115611c1557611c156123ae565b90525060408401828015611c2b57611c2b6123ae565b90818015611c3b57611c3b6123ae565b9052506060909301929092525050565b611c536120b5565b8051611c5f9083611d0d565b5060006020820152919050565b611c798260038351611d87565b81516113e69082611ea0565b8151611c929060c2611ec8565b506113bb8282604051602001611caa91815260200190565b604051602081830303815290604052611d00565b611cc9816004611f31565b600181602001818151611cdc91906124ec565b90525050565b611ced816007611f31565b600181602001818151611cdc919061249f565b611c798260028351611d87565b604080518082019091526060815260006020820152611d2d6020836126c8565b15611d5557611d3d6020836126c8565b611d4890602061249f565b611d5290836124ec565b91505b602080840183905260405180855260008152908184010181811015611d7957600080fd5b604052508290505b92915050565b6017816001600160401b031611611dad5782516115ec9060e0600585901b168317611ec8565b60ff816001600160401b031611611ded578251611dd5906018611fe0600586901b1617611ec8565b5082516115ec906001600160401b0383166001611f48565b61ffff816001600160401b031611611e2e578251611e16906019611fe0600586901b1617611ec8565b5082516115ec906001600160401b0383166002611f48565b63ffffffff816001600160401b031611611e71578251611e5990601a611fe0600586901b1617611ec8565b5082516115ec906001600160401b0383166004611f48565b8251611e8890601b611fe0600586901b1617611ec8565b5082516115ec906001600160401b0383166008611f48565b604080518082019091526060815260006020820152611ec183838451611fcd565b9392505050565b6040805180820190915260608152600060208201528251516000611eed8260016124ec565b905084602001518210611f0e57611f0e85611f098360026124ff565b61209e565b8451602083820101858153508051821115611f27578181525b5093949350505050565b81516113e690601f611fe0600585901b1617611ec8565b6040805180820190915260608152600060208201528351516000611f6c82856124ec565b90508560200151811115611f8957611f8986611f098360026124ff565b60006001611f99866101006127c0565b611fa3919061249f565b90508651828101878319825116178152508051831115611fc1578281525b50959695505050505050565b6040805180820190915260608152600060208201528251821115611ff057600080fd5b8351516000611fff84836124ec565b9050856020015181111561201c5761201c86611f098360026124ff565b855180518382016020019160009180851115612036578482525b505050602086015b6020861061207657805182526120556020836124ec565b91506120626020826124ec565b905061206f60208761249f565b955061203e565b51815160001960208890036101000a0190811690199190911617905250849150509392505050565b81516120aa8383611d0d565b506115ec8382611ea0565b60405180604001604052806120dd604051806040016040528060608152602001600081525090565b8152602001600081525090565b634e487b7160e01b600052604160045260246000fd5b600082601f83011261211157600080fd5b81356001600160401b038082111561212b5761212b6120ea565b604051601f8301601f19908116603f01168101908282118183101715612153576121536120ea565b8160405283815286602085880101111561216c57600080fd5b836020870160208301376000602085830101528094505050505092915050565b6000806000606084860312156121a157600080fd5b8335925060208401356001600160401b03808211156121bf57600080fd5b6121cb87838801612100565b935060408601359150808211156121e157600080fd5b506121ee86828701612100565b9150509250925092565b6000806020838503121561220b57600080fd5b82356001600160401b038082111561222257600080fd5b818501915085601f83011261223657600080fd5b81358181111561224557600080fd5b86602082850101111561225757600080fd5b60209290920196919550909350505050565b60006020828403121561227b57600080fd5b5035919050565b6000815180845260005b818110156122a85760208185018101518683018201520161228c565b506000602082860101526020601f19601f83011685010191505092915050565b82151581526040602082015260006122e36040830184612282565b949350505050565b80356001600160a01b038116811461230257600080fd5b919050565b6000806040838503121561231a57600080fd5b8235915061232a602084016122eb565b90509250929050565b602081526000611ec16020830184612282565b803560ff8116811461230257600080fd5b6000806040838503121561236a57600080fd5b8235915061232a60208401612346565b60006020828403121561238c57600080fd5b81356001600160401b038111156123a257600080fd5b6122e384828501612100565b634e487b7160e01b600052602160045260246000fd5b60208101600283106123e657634e487b7160e01b600052602160045260246000fd5b91905290565b6000602082840312156123fe57600080fd5b611ec1826122eb565b60008060006060848603121561241c57600080fd5b61242584612346565b925061243360208501612346565b9150604084013590509250925092565b60208082526016908201527513585d18da08185b1c9958591e481c995cdbdb1d995960521b604082015260600190565b634e487b7160e01b600052603260045260246000fd5b634e487b7160e01b600052601160045260246000fd5b81810381811115611d8157611d81612489565b600181811c908216806124c657607f821691505b6020821081036124e657634e487b7160e01b600052602260045260246000fd5b50919050565b80820180821115611d8157611d81612489565b8082028115828204841417611d8157611d81612489565b634e487b7160e01b600052601260045260246000fd5b60008261253b5761253b612516565b500490565b601f8211156113e657600081815260208120601f850160051c810160208610156125675750805b601f850160051c820191505b8181101561258657828155600101612573565b505050505050565b81516001600160401b038111156125a7576125a76120ea565b6125bb816125b584546124b2565b84612540565b602080601f8311600181146125f057600084156125d85750858301515b600019600386901b1c1916600185901b178555612586565b600085815260208120601f198616915b8281101561261f57888601518255948401946001909101908401612600565b508582101561263d5787850151600019600388901b60f8161c191681555b5050505050600190811b01905550565b60006020828403121561265f57600080fd5b5051919050565b60006001820161267857612678612489565b5060010190565b6001600160401b038616815260a0602082015260006126a160a0830187612282565b61ffff9590951660408301525063ffffffff92909216606083015260809091015292915050565b6000826126d7576126d7612516565b500690565b600181815b808511156127175781600019048211156126fd576126fd612489565b8085161561270a57918102915b93841c93908002906126e1565b509250929050565b60008261272e57506001611d81565b8161273b57506000611d81565b8160018114612751576002811461275b57612777565b6001915050611d81565b60ff84111561276c5761276c612489565b50506001821b611d81565b5060208310610133831016604e8410600b841016171561279a575081810a611d81565b6127a483836126dc565b80600019048211156127b8576127b8612489565b029392505050565b6000611ec1838361271f56fea2646970667358221220fb55a5ac0d34c997f953ca22aa78e5d7c31007da14dd867ad9acd3ccd68bf78864736f6c63430008140033",
  "linkReferences": {},
  "deployedLinkReferences": {}
}